:100000005EC0CAC177C076C075C074C073C072C00C
:1000100071C070C06FC06EC06DC06CC06BC06AC074
:1000200069C068C067C066C065C064C063C062C0A4
:1000300061C060C009022200010100800A090400B9
:100040000001030000000921010100012234000722
:1000500005810308000A1201100100000008C01603
:10006000E8030001010200010C034D006F00750060
:100070007300650012036F00620064006500760083
:100080002E00610074000403090405010905A101A3
:100090000901A1000930093115FF250195027502FA
:1000A0008102C095047501810305091901290A150A
:1000B00000950A25017501810295068103C011246E
:1000C0001FBECFEFD4E0DEBFCDBF11E0A0E0B1E0B6
:1000D000EAECF6E002C005900D92A230B107D9F724
:1000E00021E0A2E0B1E001C01D92AD33B207E1F71B
:1000F000AED2E9C285CFCF93C62F2091120124FF43
:1001000018C02091130138E82327209313012C2FC6
:10011000FC01A4E1B1E081918D9321501216DCF332
:100120006C2F84E191E034D1CC5FC0931201CF9168
:1001300008952AE520931201EACFCF93DF938091AF
:100140002301835087FD27C090911F019D3209F53F
:100150008830F9F480912001CCE0D0E0C81BD109AF
:10016000C95DDE4F83EC809307018AE5809301012E
:10017000109202018881807609F463C0CE0146D2D4
:100180009F81911104C09E81981708F4892F809354
:100190000001109223018091010184FF45C08091EC
:1001A00000018F3F09F440C0C82F893008F0C8E033
:1001B000982F9C1B909300019091070128E89227AB
:1001C00090930701882321F1209121013091220190
:1001D00080910201A9014750514086FFAAC0A7E0C3
:1001E000B1E09C2FFA01EA0FFB1FE4911196EC930A
:1001F0001197915011969111F5CF2F5F3F4F8FEFCF
:100200008C0F820F932F911D9093220180932101D7
:100210006C2F88E091E0BCD0CC5FCC3019F08FEF30
:1002200080930001C093010184E199B1947131F48C
:100230008150D9F71092240110921E01DF91CF91C5
:1002400008952A8110921001998191110AC010928B
:10025000110120E131E082E030932201209321015D
:100260008FCF953029F42093240120E131E0F4CFA1
:10027000963009F047C09B81913041F486E590E0CB
:10028000909322018093210182E109C0923059F4B8
:1002900084E390E0909322018093210182E290E434
:1002A000909302016DCF9330C9F4211108C086E804
:1002B00090E0909322018093210184E0F0CF2130DF
:1002C00019F484E790E0DCCF223049F788E690E02B
:1002D00090932201809321018CE0E1CF913241F48F
:1002E00086E490E0909322018093210189E0D7CFAA
:1002F0009232A9F68AE890E090932201809321013E
:1003000084E3CDCF983071F0993019F42093260111
:10031000ACCF9A3059F09B3009F0A7CF9BE4909373
:100320001301A3CF26E231E081E096CF20E131E056
:10033000FBCFE7E0F1E09C2FDA01AE0FBF1F8C91FD
:100340008183915031969111F7CF57CFE9E6F0E0D4
:10035000808182608083E89AE2E1F1E08BE481832E
:100360008AE580830895A82FB92F80E090E041E0CE
:1003700050EA609530E009C02D91822797958795C6
:1003800010F084279527305EC8F36F5FA8F30895B7
:10039000EADF8D939D930895CF93CFB7CF93C39505
:1003A0004C9BE9F74C9B09C04C9B07C04C9B05C07C
:1003B0004C9B03C04C9B01C0A3C0DF93C0912001A4
:1003C000DD27C95DDE4F4C9B02C0DF91EBCF2F9341
:1003D0000F931F9309B12FEF04FB20F94F933F9325
:1003E00019B14FEF012704FB21F93BE031C04E7FEB
:1003F000012F19B1216028C0102F4D7F226000000D
:1004000009B129C04B7F2460012F000019B12BC016
:1004100019B1477F28602AC04F7E09B120612CC0E6
:100420004F7D19B120622FC04F7B09B1206432C0CB
:10043000422709B149934FEF0000102714FB20F920
:1004400019B11471C9F1297F91F2012704FB21F937
:1004500009B1237F89F2315058F1102714FB22F99A
:1004600019B1277E79F2012704FB23F92F7C81F251
:1004700009B1102714FB24F92F7971F200C019B1CA
:10048000012704FB25F92F7359F200C009B1102789
:1004900014FB26F9223040F200C019B1012704FBF9
:1004A00027F9243028F64F77206819B10000F9CFDA
:1004B00011E01CBB002719C03B503195C31BD04035
:1004C00011E01CBB0881033CF9F00B34E9F02091EA
:1004D0001E011981110F1213EDCF4A81441F0936F5
:1004E00041F10D3211F0013E29F7009325013F91B2
:1004F0004F911F910F912F91DF91CCB3C0FD4FCF42
:10050000CF91CFBFCF91189520912501222379F368
:1005100010912301112369F534306AF130932301DE
:1005200020931F01109120013BE0311B30932001EB
:1005300022C0009123010130E4F40AE54F7049F430
:100540003091010134FD19C000930101C7E0D1E0F1
:1005500018C03091120134FD10C000931201C3E1A4
:10056000D1E00FC02795A8F45150A9F4220F000044
:10057000F9CF4AE503C042ED01C0432FC4E1D0E00A
:1005800032E01AB114615C9A1AB90BB120E414E19B
:100590005F93012756E00BB9279520F4515021F4C1
:1005A000220FF9CF012756E000003B5A0BB9D0F2D9
:1005B000279528F4515029F4220F0000F9CF012784
:1005C00056E027950BB920F4515021F4220FF9CFB2
:1005D000012756E0299133230BB921F60B7E1091A8
:1005E0002401110FC651D0400BB911F010931E0118
:1005F00011E01CBB00611AB11B7E402F4B7E5F9146
:1006000000C000C00BB91AB94BB971CFFC01808191
:1006100080768032D1F48181813041F484E091E0B0
:10062000909322018093210183E00895823041F468
:1006300083E091E0909322018093210181E008956D
:100640008A3019F483818093030180E0089588E162
:100650009EE00FB6F894A895809360000FBE90932B
:10066000600074DE549A80E0815009F554987894C3
:1006700014B817B8A89561DD8091120184FFFACFF4
:1006800093B181E090FD03C083E091FF80E092FF91
:1006900016C084608093040186B18093050183B104
:1006A0001092060163E084E091E025DDE3CFA89598
:1006B000E7EBFBE03197F1F700C00000D5CF93FFE7
:0A06C000E9CF8C60E7CFF894FFCF7C
:0206CA00FF5AD5
:00000001FF
